S00B00004932432E737265635B
S11300000C94B5020C94C7020C94C7020C94C7025A
S11300100C94C7020C94C7020C94C7020C94C70238
S11300200C94C7020C94C7020C94C7020C94C70228
S11300300C94C7020C94FC020C94C7020C94C702E3
S11300400C94C7020C946C110C94C7020C94C70254
S11300500C94C7020C94C7020C94C7020C94C702F8
S11300600C94C7020C94C7020C94C7020C94C702E8
S11300700C94C7020C94C7024E414E494E49545940
S1130080494E46CDCCCC3D0AD7233C17B7D138775F
S1130090CC2B329595E6241FB14F0A000020410075
S11300A000C84200401C4620BCBE4CCA1B0E5AAEBF
S11300B0C59D747C0A202020002E0025630020208A
S11300C07C00203078253038583A20003E3E206DA0
S11300D064702061646472205B73697A655D200AD0
S11300E0007C0A202020002E0025630020207C00B4
S11300F02030782530385800203078253038583A68
S113010020003E3E206D642061646472205B73694C
S11301107A655D200A002D2D2D2D2D2D2D2D2D2DB3
S11301202D2D2D2D2D2D2D2D2D2D2D2D2D2D2D2DFB
S11301302D2D2D0D0A000D0A002D2D2D2D2D2D2DCB
S11301402D2D2D20636D64206C697374202D2D2D4D
S11301502D2D2D2D2D2D0D0A000D0A00636C692304
S113016020000A0D000D0A001B5B346825631B5B2D
S1130170346C000820081B5B3150001B5B315000BD
S1130180693263207363616E0A00696E666F20666C
S11301907573650A002020202020415050454E44AC
S11301A0202020202009203A202564204B420A00E8
S11301B00A465553452E415050454E4420202009AF
S11301C0203A203078253038580A0020202020207A
S11301D0424F4F54454E44202020202009203A20ED
S11301E02564204B420A000A465553452E424F4F80
S11301F054454E4420202009203A203078253038B8
S1130200580A000A00202020202053555420202082
S11302102020202020202009203A20003634206D80
S113022073003332206D73003136206D7300382033
S11302306D730034206D730032206D730031206DB6
S1130240730030206D73000A465553452E5359539D
S1130250434647312020202009203A203078253099
S113026038580A000A0020202020204545534156D2
S113027045202020202009203A20000A00202020A8
S1130280202052535450494E434647202009203AD7
S11302902000454550524F4D206E6F7420657261A9
S11302A073656420756E64657220436869702045C7
S11302B07261736500454550524F4D2065726173FC
S11302C0656420647572696E6720436869702045AF
S11302D072617365002D20005245534554204578C2
S11302E07465726E616C20526573657420656E610D
S11302F0626C6564206F6E20504636002D200049E4
S11303004E5055542050463620636F6E66696775AB
S11303107265642061732067656E6572616C206923
S11303206E7075742070696E000A465553452E53DD
S11303305953434647302020202009203A20307862
S1130340253038580A000A002020202020434C4B36
S113035053454C202020202009203A20004F5343AD
S113036033324B004F53434846000A465553452EFB
S11303704F5343434647202020202009203A203071
S113038078253038580A000A002020202020534CB9
S11303904545502020202020202009203A20000A12
S11303A0002020202020414354495645202020206D
S11303B0202009203A20000A002020202020534138
S11303C04D50465245512020202009203A20000A51
S11303D00020202020204C564C20202020202020AB
S11303E0202009203A200052657365727665640006
S11303F053414D504C4500454E41424C4500444903
S11304005341424C4500454E41424C4557414954A5
S11304100053414D504C4500454E41424C4500442B
S1130420495341424C45003332487A00313238480E
S11304307A00322E38355600322E37305600322E9E
S113044034355600312E3956000A465553452E424E
S11304504F4443464720202020202009203A2030C2
S113046078253038580A0020202020205045524951
S11304704F445B333A305D2009203A2030782558C8
S11304800A00202020202057494E444F575B333A1E
S1130490305D2009203A20307825580A000A465554
S11304A053452E57445443464720202020202009FA
S11304B0203A203078253038580A0040044404009B
S11304C000526573657446726F6D203A20457463FB
S11304D00D0A00526573657446726F6D203A2042AE
S11304E06F440D0A00526573657446726F6D203A4D
S11304F020536F66740D0A00526573657446726FFB
S11305006D203A205764670D0A005265736574467E
S1130510726F6D203A2050696E0D0A005265736542
S11305207446726F6D203A20506F7765720D0A0021
S113053052657365744D6F6465203A2030782530B8
S113054032580D0A000A00726573657420626F6F79
S11305507420307830307E307846460A00726573F5
S1130560657420696E666F0A000011241FBECFEF08
S1130570CDBFDFE3DEBF2BE3A0E0B8E301C01D92F3
S1130580AF3BB207E1F70E94A4110C94311A0C940A
S11305900000FA01DC0102C005900D9221503040A8
S11305A0D8F7089540E052EC61E070E080E00E94EA
S11305B0F40540EA56E861E070E080E00E94960BA2
S11305C008950E943B036B017C010E943B03DC0104
S11305D0CB018C199D09AE09BF09883C9105A10581
S11305E0B10538F00E943B036B017C0180E00E945E
S11305F01A0F0E94D108E9CF78941F920F920FB678
S11306000F9211248F939F93AF93BF9380910038DF
S113061090910138A0910238B09103380196A11D40
S1130620B11D8093003890930138A0930238B093A1
S1130630033881E08093860ABF91AF919F918F9197
S11306400F900FBE0F901F90189588ED84BFE0E6C1
S1130650F0E0108284BF1182E0E8FAE01082118297
S113066081E085838FE19EE4848795878081816022
S11306708083789408952FB7F8946091003870912E
S1130680013880910238909103382FBF08958F92DA
S11306909F92AF92BF92CF92DF92EF92FF924B0163
S11306A05C010E943B036B017C010E943B03DC0163
S11306B0CB018C199D09AE09BF0988159905AA05B6
S11306C0BB0598F3FF90EF90DF90CF90BF90AF9071
S11306D09F908F900895FC011082118212821382E0
S11306E014821582168217822087318742875387A6
S11306F06487758781E008954F925F926F927F922D
S1130700AF92BF92CF92DF92EF92FF920F931F931B
S1130710CF93DF93EC015B0129013A0100E010E083
S11307202CC0C880D980EA80FB80C701B6016F5F06
S11307307F4F8F4F9F4F288539854A855B850E945F
S1130740CA132C813D814E815F8162177307840730
S11307509507F9F02C853D852115310541F0D90126
S1130760AC0DBD1DF501E00FF11F20812C936883B2
S113077079838A839B830F5F1F4FC801012E000C6E
S1130780AA0BBB0B84159505A605B70550F281E0AD
S113079001C080E0DF91CF911F910F91FF90EF9006
S11307A0DF90CF90BF90AF907F906F905F904F900D
S11307B008954F925F926F927F928F929F92AF9221
S11307C0BF92EF92FF920F931F93CF93DF93EC01AD
S11307D07B0149015A0100E010E030C02C853D85C1
S11307E02115310561F08C819D81AE81BF81F901B4
S11307F0E80FF91F8081F701E00FF11F80838C81DE
S11308009D81AE81BF81488059806A807B80841538
S11308109505A605B705F1F0BC01CD016F5F7F4FCB
S11308208F4F9F4F288539854A855B850E94CA135F
S11308306C837D838E839F830F5F1F4FC801012EBE
S1130840000CAA0BBB0B88159905AA05BB0530F251
S113085081E001C080E0DF91CF911F910F91FF9063
S1130860EF90BF90AF909F908F907F906F905F902C
S11308704F9008950F931F93FC0180819181A28171
S1130880B3810481158126813781BC01CD01601BB0
S1130890710B820B930B20853185428553850E9411
S11308A0CA131F910F910895FC01EF5AFD4F108256
S11308B03197108231972FE22083F09710820895A8
S11308C0FC01EF5AFE4F5081252F30E043E3429F55
S11308D0D001439FB00D1124A80FB91FAD5ABE4FCC
S11308E0E253FF4F01900D924A95E1F7FC01EE5A55
S11308F0FE4F4081443010F44F5F4083FC01E05BC5
S1130900FE4F50832F5F3F4F23703078332334F4EE
S1130910215031092C6F3F6F2F5F3F4FFC01EF5A7D
S1130920FE4F2083329721E020830895FC0120E0CC
S113093030E00EC0DF01A20FB31F9C91992359F040
S11309404FE9490F4A3108F490529C932F5F3F4F6F
S11309502E30310578F32E30310529F42150310938
S1130960E20FF31F1082089590E020915A3B3091DA
S11309705B3B8217930758F4E0915C3BF0915D3B3D
S1130980880F991FE80FF91F80819181089580E0F5
S113099090E00895282F30E080915A3B90915B3B82
S11309A02817390788F4CB01E0915C3BF0915D3B5B
S11309B0220F331FE20FF31F608171810E948216A0
S11309C0892B21F080E0089580E0089581E0089566
S11309D090E020915A3B30915B3B8217930778F467
S11309E0E0915C3BF0915D3B880F991FE80FF91F84
S11309F060E070E0808191810E940014089560E0BD
S1130A0070E0CB01089590E020915A3B30915B3B1C
S1130A108217930788F4E0915C3BF0915D3B880F6B
S1130A20991FE80FF91F40E050E060E070E080811A
S1130A3091810E944E15089560E070E080E090E09E
S1130A4008951F93CF93DF93FC01EE5AFE4F20814C
S1130A50222309F474C0162FEC01E250FF4F808169
S1130A60882379F01F928F9386E694EB9F938F935C
S1130A7088818F930E9440110F900F900F900F90D8
S1130A800F90FE01EF5AFD4F8081882379F01F9269
S1130A908F938CE694EB9F938F9388818F930E941E
S1130AA040110F900F900F900F900F901130F1F4B0
S1130AB0FE01E15BFE4F8081882321F03296808124
S1130AC031978083FE01E05BFE4F8081DE01AE5AE8
S1130AD0BE4F6C9170E09B01280F311D87FD3A9544
S1130AE0C90101970E94B613808310C0FE01E05B28
S1130AF0FE4F8081082E000C990B0196DE01AE5A40
S1130B00BE4F6C9170E00E94B6138083DE01A15E3B
S1130B10BD4FFE0133E3839FE00DF11D1124ED5A17
S1130B20FE4F83E301900D928A95E1F7FE01EF5A9F
S1130B30FD4F808131978083C15BDE4F1882DF9146
S1130B40CF911F910895CF92DF92EF92FF920F936E
S1130B501F93CF93DF9300D0CDB7DEB76C01FC01B8
S1130B60E35FFE4F108211827C0181EFE81A8EEF61
S1130B70F80AF70110821182AE014F5F5F4F62E7FE
S1130B8074EBC601815E9D4F0E94921620E030E016
S1130B9014C089010F5F1F4F220F331FF701E20FAB
S1130BA0F31F80839183AE014F5F5F4F62E774EB65
S1130BB080E090E00E9492169801009751F7F601A8
S1130BC0E35FFE4F20833183232B11F480E001C0C7
S1130BD081E00F900F90DF91CF911F910F91FF90C3
S1130BE0EF90DF90CF9008950F931F93CF93DF93EF
S1130BF0E6E0F8E380839581992369F00091073852
S1130C00109108382091093830910A3804171507D3
S1130C102607370749F0C6E0D8E349835A836B8334
S1130C207C830E9458108D8380910B38DF91CF9183
S1130C301F910F910895CF93DF93CDB7DEB79E0137
S1130C402B5F3F4FF901419151919F0160E071E0A9
S1130C5083E198E30E94C1169C01990F440B550B44
S1130C6063E178E3809106380E94BA10DF91CF9156
S1130C700895CF93DF93CDB7DEB79E012B5F3F4F2F
S1130C80F901419151919F0160E071E083E198E3A2
S1130C900E94ED169C01990F440B550B63E178E318
S1130CA0809106380E94BA10DF91CF9108950F9376
S1130CB01F93CF93DF938C010E94A305882309F42B
S1130CC050C085E691E09F938F930E943906F80106
S1130CD0E15FFE4F808191810E9496040F900F90F6
S1130CE0C0E0D0E036C0BE0162957295707F762771
S1130CF0607F76276C5A7D4F600F711FF801E15FAA
S1130D00FE4F808191810E948216892B09F5F8019A
S1130D10E35FFE4F2081318121503109C8018C5A93
S1130D209C4FFC012083318398012F5E3E4F329605
S1130D3020833183C295D295D07FDC27C07FDC2706
S1130D40C00FD11FCE59DD4FE881F981099509C043
S1130D502196F801EE5AFD4F80819181C817D90779
S1130D6010F280E0DF91CF911F910F91089582E6F8
S1130D7091E09F938F930E9439068CE591E09F93B5
S1130D808F930E9439060F900F900F900F90089543
S1130D90EF92FF920F931F93CF93DF93CDB7DEB7FC
S1130DA02997CDBFDEBF8C016987DC011C968C912D
S1130DB0811116C16D3051F020F4683009F456C029
S1130DC0A2C06B31C9F06F37D9F09DC0F801E15E64
S1130DD0FD4F82A9882331F0C8010E946004C80134
S1130DE00E945706F801E15EFD4F12AA11AA108273
S1130DF0C8010E94B706F4C081E0F8018487F0C0FE
S1130E00F801E15EFD4F61A9F2A86F1508F0E8C092
S1130E107F2D761B21E030E012C0C901860F911DA1
S1130E20AC0141505109F801E15EFD4FDF01A80F0B
S1130E30B91F8C91E40FF51F80832F5F3F4F872FDD
S1130E4090E0281739074CF3AFEFAF0DF801E15EDE
S1130E50FD4FA2ABEA0FF11D10828BE791E09F9347
S1130E608F930E9439060F900F90BAC0F801E15E8B
S1130E70FD4F82A98823A9F161A9662391F1861304
S1130E8005C0815082ABE80FF11D1082F801E15ECC
S1130E90FD4FF2A86F1528F57F2D761B20E030E07A
S1130EA012C0C901860F911DAC0141505109F801CE
S1130EB0E15EFD4FDF01A80FB91F8C91E40FF51F10
S1130EC080832F5F3F4F872F90E0281739074CF31B
S1130ED0AFEFAF0DF801E15EFD4FA2ABEA0FF11DDC
S1130EE01082F801E15EFD4F81A9882309F478C0DE
S1130EF0815081AB83E791E09F938F930E943906E1
S1130F000F900F906DC0F801E15EFD4F42A9242FB0
S1130F1030E02F5F3F4F80A990E0281739070CF08D
S1130F205FC081A948131CC021E030E040E050E0DC
S1130F30BE01675F7F4FD8018C910E94BA10F801FF
S1130F40E15EFD4F91A9DF01A90FB11D89858C9345
S1130F5082A98F5F82AB9F5F91ABE80FF11D108276
S1130F60F801E15EFD4FF1A872A9F716C8F5A72FA5
S1130F70AF1920E030E012C0872F90E0821B930B62
S1130F80FC013197A801415E5D4FE40FF51F6081BC
S1130F90FA01E80FF91F60832F5F3F4F8A2F90E01B
S1130FA0281739074CF38985F801E15EFD4F9F014D
S1130FB02F0D311DD9018C937F5F72ABB1E0BF0D52
S1130FC0B1ABE70FF11D10821F928F9388E691E079
S1130FD09F938F930E9439060F900F900F900F905C
S1130FE0F8018485823069F018F4813039F0CEC07C
S1130FF0833059F0843009F4C8C0C8C082E08487C3
S1131000C5C083E0F8018487C1C01486898584340F
S1131010C1F4F801E15EFD4F91A9992391F091503B
S113102091AB9BE199839BE59A838B8323E030E02A
S113103040E050E0BE016F5F7F4FF80180810E9465
S1131040BA1089858334C9F4F801E15EFD4F91A992
S113105022A9921790F49F5F91AB9BE199839BE542
S11310609A838B8323E030E040E050E0BE016F5F61
S11310707F4FD8018C910E94BA108985813489F4FC
S113108061E0C8010E942105C801815E9D4F9F93C4
S11310908F93F80180818F930E9440110F900F90DD
S11310A00F908985823489F460E0C8010E9421058B
S11310B0C801815E9D4F9F938F93D8018C918F932C
S11310C00E9440110F900F900F9089858133E9F4AD
S11310D07801B1EEEB1ABDEFFB0AF70181A91F926B
S11310E08F9386E694EB9F938F93D8018C918F9383
S11310F00E944011F70111AA84E0D8011C968C9338
S11311000F900F900F900F900F9089858433F1F515
S1131110F801E15EFD4F21A982A9281798F490E017
S1131120821B91099F938F9389E794EB9F938F93ED
S1131130F80180818F930E9440110F900F900F90BF
S11311400F900F90F801E15EFD4F81A922A92817A5
S113115098F490E0821B91099F938F9386E694EB19
S11311609F938F93D8018C918F930E9440110F907D
S11311700F900F900F900F90F801E15EFD4F82A940
S113118081AB84E0F801848701C0148680E029964D
S1131190CDBFDEBFDF91CF911F910F91FF90EF90F4
S11311A00895CF93C0910B38CC2389F080910638F1
S11311B00E94AB10672B682B692B49F0809106388D
S11311C00E941711682F86E098E30E94C8068C2FAE
S11311D0CF910895CF93DF9389E591E09F938F9307
S11311E00E94390689E391E09F938F930E94390608
S11311F00F900F900F900F90C0E0D0E018C0CE0178
S113120082959295907F9827807F9827865A954C4F
S11312109F938F930E941B0686E391E09F938F9385
S11312200E94390621960F900F900F900F90809195
S1131230583A9091593AC817D90708F386E191E0D2
S11312409F938F930E9439060F900F90DF91CF9157
S113125008956F927F928F929F92AF92BF92CF9296
S1131260DF92EF92FF920F931F93CF93DF9300D0FF
S113127000D0CDB7DEB7FC0120813181028113811A
S11312802115310549F482E091E09F938F930E94E8
S113129039060F900F90A8C0223031055CF040E071
S11312A050E060E070E0F801828193810E944E1565
S11312B03B0104C06894662464F8712CF8018081B1
S11312C091810E9443166C018FE794EB9F938F9357
S11312D00E941B060F900F904601E12CF12C80C058
S11312E0C70183709927892B61F4DF92CF9288EF2D
S11312F090E09F938F930E9439060F900F900F9068
S11313000F90F60181818F9380818F9380EF90E01D
S11313109F938F930E943906C701837090780F9032
S11313200F900F900F90992324F401978C6F9F6F67
S11313300196039709F04EC08CEE90E09F938F9333
S11313400E9439060F900F90A12CB12C37C0F401E4
S113135080819181A281B38189839A83AB83BC8389
S113136000E010E022C0E1E0F0E0EC0FFD1FE00F30
S1131370F11F808190EE980F9F3568F41F928F9330
S113138089EE90E09F938F930E9439060F900F90FF
S11313900F900F9008C087EE90E09F938F930E9468
S11313A039060F900F900F5F1F4F04301105DCF2C8
S11313B0F2E08F0E911C8FEFA81AB80AE4E0AE1683
S11313C0B1042CF281EE90E09F938F930E94390632
S11313D00F900F90F2E0CF0ED11C8FEFE81AF80AAD
S11313E0E614F7040CF47CCF2496CDBFDEBFDF9166
S11313F0CF911F910F91FF90EF90DF90CF90BF900E
S1131400AF909F908F907F906F9008952F923F920E
S11314104F925F926F927F928F929F92AF92BF9200
S1131420CF92DF92EF92FF920F931F93CF93DF93AC
S113143000D000D0CDB7DEB7FC012081318102811C
S113144013812115310549F48CEC90E09F938F931F
S11314500E9439060F900F90A2C0223031055CF033
S113146040E050E060E070E0F801828193810E94E6
S11314704E151B0104C06894222424F8312C40E04A
S113148050E060E070E0F801808191810E944E1587
S11314904B015C018FE794EB9F938F930E941B0693
S11314A00F900F9024013501E12CF12C74C0C70179
S11314B083709927892B61F49F928F9282EC90E03C
S11314C09F938F930E9439060F900F900F900F9067
S11314D0C70183709078992324F401978C6F9F6FD0
S11314E00196039709F04FC08EEB90E09F938F9382
S11314F00E9439060F900F90C12CD12C38C024E0E3
S113150030E0B301A201CE0101960E94C90200E0BD
S113151010E022C0E1E0F0E0EC0FFD1FE00FF11F4E
S1131520808190EE980F9F3568F41F928F938BEB18
S113153090E09F938F930E9439060F900F900F9025
S11315400F9008C089EB90E09F938F930E94390617
S11315500F900F900F5F1F4F04301105DCF2F4E081
S11315604F0E511C611C711C8FEFC81AD80AE4E09D
S1131570CE16D10424F283EB90E09F938F930E94C4
S113158039060F900F90F4E08F0E911CA11CB11C32
S11315908FEFE81AF80AE214F3040CF488CF2496C7
S11315A0CDBFDEBFDF91CF911F910F91FF90EF90E0
S11315B0DF90CF90BF90AF909F908F907F906F906F
S11315C05F904F903F902F900895EF92FF920F936A
S11315D01F93CF93DF932091583A3091593A203199
S11315E03105F8F48B01BC01E901C295D295D07F95
S11315F0DC27C07FDC27CE01865A954C7C010E94F3
S11316008B16C859D54C08831983C7010E949604C8
S1131610E8E5FAE38081918101968083918381E0FA
S113162001C080E0DF91CF911F910F91FF90EF9067
S11316300895E6E0F8E3158216821486109256396E
S113164010925739109258391092553983E095E029
S113165080935E3B90935F3B88EE94E08093603B85
S11316609093613B84EB94E08093623B9093633B63
S11316708AEC94E08093643B9093653BCF010E9495
S113168054046AEE78E084E894EB0E94E50A69E287
S113169079E089E894EB0E94E50A66E07AE08CE858
S11316A094EB0E94E50A81E008958F929F92AF9295
S11316B0BF92CF92DF92EF92FF924B015C010E94A6
S11316C03B036B017C010FC08091A508807C39F03D
S11316D09091A508892F807194FD14C016C0809143
S11316E0A5088C7089F40E943B03DC01CB018C19A2
S11316F09D09AE09BF0988159905AA05BB0520F304
S113170083E003C081E001C083E0FF90EF90DF90AD
S1131710CF90BF90AF909F908F90089569E47CE044
S113172080E994EB0E94E50A81E00895811130C0BC
S1131730CB01BA01E0E2F4E028E0208B218B23E026
S113174021830E94BB129B01AC0160E876E988E921
S11317509BE40E941A1220E030E040E251E40E942F
S1131760AD1120E030E040EC50E40E94AD1120E0E7
S113177030E040E05FE30E9449130E948C12E0EAEB
S1131780F8E06683178210868DEF858381E083837A
S113179080E008954F925F926F927F928F929F9212
S11317A0AF92BF92CF92DF92EF92FF920F931F936B
S11317B0CF93DF93EA0148015901811128C06E7F5C
S11317C06093A708C701B6010E94550B81111FC081
S11317D081149104A104B104D1F0209769F417C0D5
S11317E088818093A808C701B6010E94550B811116
S11317F00EC02196530142012401350181E0481AAB
S113180051086108710889288A288B2849F780E0E3
S1131810DF91CF911F910F91FF90EF90DF90CF90C8
S1131820BF90AF909F908F907F906F905F904F90FC
S11318300895811103C083E08093A4080895CF9292
S1131840DF92EF92FF920F931F93CF93DF93811157
S113185015C0C82F70E00F2EF4E6CF2ED12CE12C4A
S1131860F12CF02D00E010E0980140E050E00E94DF
S1131870CA0BD82F8C2F0E94190C01C0D0E08D2FD9
S1131880DF91CF911F910F91FF90EF90DF90CF9058
S11318900895CF93DC012D913C91119721303105AE
S11318A039F51A96ED91FC911B9764E974EB80E08D
S11318B00995811118C01DC06C2F80E00E941F0C77
S11318C0882379F08C2F90E001969F938F9389E978
S11318D094EB9F938F930E941B060F900F900F9091
S11318E00F90CF5F01C0C0E0CF3730F381E001C07B
S11318F080E0811108C080E891E09F938F930E945B
S113190039060F900F90CF910895CF92DF92EF9206
S1131910FF920F931F93CF93DF93CDB7DEB7EC976E
S1131920CDBFDEBFDC012D913C91119721303105F3
S113193009F037C21A96ED91FC911B9764EB74EB96
S113194080E00995882309F42EC200E812E1F80129
S113195080811F928F938DE994E09F938F930E94CF
S11319603906D8018C911F921F9282E894E09F93CC
S11319708F930E943906F80180818F701F928F9394
S113198087E694E09F938F930E943906D8011196BD
S11319908C911F928F9389E494E09F938F930E947C
S11319A0390684E494E089A79AA78EE394E08BA790
S11319B09CA788E394E08DA79EA782E394E08FA779
S11319C098AB8CE294E089AF9AAF87E294E08BAF56
S11319D09CAF8FE194E089A39AA388E194E08BA360
S11319E09CA381E194E08DA39EA386E094E08FA361
S11319F098A78EEF93E0898F9A8F87EF93E08B8F70
S1131A009C8F80EF93E08D8F9E8F87EE93E08F8F76
S1131A1098A3F801C180C694C694C694C694C6948B
S1131A20D12C81ED93E09F938F930E943906F601A8
S1131A30EE0FFF1F81E090E08C0F9D1FE80FF91F50
S1131A4080A591A59F938F930E9439068FEC93E014
S1131A509F938F930E943906D80111968C918071BF
S1131A60C82ED12CD594C794D594C794D594C79433
S1131A70D594C79489EB93E09F938F930E94390682
S1131A80F601EE0FFF1F81E090E08C0F9D1FE80F21
S1131A90F91F80AD91AD9F938F930E94390687EB18
S1131AA093E09F938F930E943906D80111968C91ED
S1131AB08C70C82ED12CD594C794D594C79481EA40
S1131AC093E09F938F930E943906F601EE0FFF1F58
S1131AD081E090E08C0F9D1FE80FF91F80A191A178
S1131AE09F938F930E943906CDBFDEBF8FE993E0A9
S1131AF09F938F930E943906D8011196EC91E3705D
S1131B00CE2ED12C89E893E09F938F930E943906BF
S1131B10F601EE0FFF1F81E090E08C0F9D1FE80F90
S1131B20F91F808D918D9F938F930E94390687E8CA
S1131B3093E09F938F930E943906D80112968C915B
S1131B401F928F938AE693E09F938F930E943906A6
S1131B5084E693E08DAB9EAB8DE593E08FAB98AFBD
S1131B60D8011296EC91E370CE2ED12C88E493E048
S1131B709F938F930E943906F601EE0FFF1F81E0B9
S1131B8090E08C0F9D1FE80FF91F84A995A99F93DE
S1131B908F930E94390686E493E09F938F930E946B
S1131BA03906D80115968C911F928F9389E293E0A0
S1131BB09F938F930E9439068FEF92E0898B9A8BC3
S1131BC08CEF92E08B8B9C8B88ED92E08D8B9E8BBF
S1131BD085ED92E08F8B988F85EB92E089AB9AAB81
S1131BE082E992E08BAB9CABF80185818C70C82EA6
S1131BF0D12CD594C794D594C7948DE792E09F9344
S1131C008F930E943906F601EE0FFF1F81E090E0EA
S1131C108C0F9D1FE80FF91F808991899F938F93E3
S1131C200E9439068BE792E09F938F930E943906B6
S1131C30D80115968C9180FBEE24E0F8F12C86E611
S1131C4092E09F938F930E943906EE0CFF1CE1E013
S1131C50F0E0EC0FFD1FEE0DFF1D80A991A99F93ED
S1131C608F930E943906CDBFDEBF84E692E09F9336
S1131C708F930E943906D80116968C911F928F93E8
S1131C8087E492E09F938F930E94390682E492E066
S1131C9089839A838DE392E08B839C8388E392E02B
S1131CA08D839E8383E392E08F8398878EE292E014
S1131CB089879A8788E292E08B879C8782E292E008
S1131CC08D879E878CE192E08F87988BD80116963A
S1131CD0EC91E770EE2EF12C85E092E09F938F93C8
S1131CE00E943906F701EE0FFF1F81E090E08C0F90
S1131CF09D1FE80FF91F808191819F938F930E940C
S1131D00390683E092E09F938F930E943906D801AD
S1131D1018968C911F928F9387EE91E09F938F93E7
S1131D200E943906F801208580E0922F990F9923AB
S1131D3014F481509C4F292F220F220B892F859553
S1131D4085952F938F938BEC91E09F938F930E94B3
S1131D50390600E812E1D80117968C911F928F93EF
S1131D6080EB91E09F938F930E943906F8012781BD
S1131D7080E0922F990F992314F481509C4F292FBE
S1131D80220F220B892F859585952F938F9385E9B3
S1131D9091E09F938F930E943906CDBFDEBF81E00F
S1131DA003C080E001C080E0811108C08AE891E0AE
S1131DB09F938F930E9439060F900F90EC96CDBF9E
S1131DC0DEBFDF91CF911F910F91FF90EF90DF90D5
S1131DD0CF90089565E87CE089EB94EB0E94E50AD6
S1131DE081E0089520E030E020C0C901880F991FE8
S1131DF0FC01E20FF31FEE0FFF1FE554FB4FA5910B
S1131E00B491FC01E20FF31FEE0FFF1FE154FB4FEF
S1131E10E49181E090E002C0880F991FEA95E2F70F
S1131E209C91892B8C932F5F3F4F12161306ECF66F
S1131E3081E0089590E09C01220F331FF901E80F1F
S1131E40F91FEE0FFF1FE354FB4FA591B491F90165
S1131E50E80FF91FEE0FFF1FE154FB4FE49181E0FF
S1131E6090E002C0880F991FEA95E2F79C918927B8
S1131E708C9308958091400080FF05C090910438B0
S1131E8091609093043881FF05C09091043892606A
S1131E909093043882FF05C0909104389460909325
S1131EA0043883FF05C090910438986090930438F7
S1131EB084FF05C09091043890619093043885FFA5
S1131EC005C080910438806280930438E0E4F0E037
S1131ED08081808369ED7FE08EEB94EB0E94E50ABC
S1131EE081E0089585E495E09F938F930E943906DD
S1131EF0809105381F928F9380E395E09F938F9391
S1131F000E943906809104380F900F900F900F9023
S1131F100F900F9080FF08C08CE195E09F938F9302
S1131F200E9439060F900F908091043882FF08C0F8
S1131F308AE095E09F938F930E9439060F900F904B
S1131F408091043883FF08C088EF94E09F938F93B7
S1131F500E9439060F900F908091043884FF08C0C6
S1131F6085EE94E09F938F930E9439060F900F9013
S1131F708091043881FF08C083ED94E09F938F9390
S1131F800E9439060F900F908091043885FF08C095
S1131F9081EC94E09F938F930E9439060F900F90E9
S1131FA008958093053891E088ED84BF90934100B3
S1131FB008951F93CF93DF93EC0188819981019752
S1131FC061F4EA85FB8569EB74EB80E0099588236D
S1131FD031F00E94720F11E003C010E001C010E064
S1131FE0888199810297B1F4EA85FB8564EC74EBEE
S1131FF080E00995882371F06AE070E080E090E069
S11320000E944703EC81FD8181E00995862F0E949F
S1132010D10F11E0111110C08DE595E09F938F93BE
S11320200E94390687E495E09F938F930E943906B6
S11320300F900F900F900F90DF91CF911F91089503
S1132040CF93DF931F92CDB7DEB76983282F30E09B
S113205087E5829FF001839FF00D1124EA59F44C27
S11320608681813089F447E5429FC001439F900DEA
S1132070112421E030E040E050E0BE016F5F7F4F6B
S11320808155944C0E947C030F90DF91CF91089569
S113209080E00AC097E5899FF0011124EA59F44CC5
S11320A01082168215828F5F8823A1F381E0089540
S11320B0CF92DF92EF92FF921F93CF93DF93811120
S11320C041C06A017B01F89427E5829FC001112475
S11320D0EC01CA59D44C11E01E8349835A836B83A3
S11320E07C8320E038E02F833887BC016159744C2D
S11320F020E430E040E050E08155944C0E946B03B2
S113210060E074EB84EC94E0A70196010E94CA138A
S1132110EF81F88520873187EF81F8858BE087830D
S1132120E0E2F4E084E0818388E08283EF81F88553
S113213080EC8683EF81F88580E885837894188322
S113214081E001C080E0DF91CF911F91FF90EF907B
S1132150DF90CF900895811109C027E5829FC001C7
S113216011248155944C0E943A04089560E070E073
S1132170CB0108954F925F926F927F928F929F92BC
S1132180AF92BF92CF92DF92EF92FF920F931F9381
S1132190CF93DF93E7E58E9FC0011124FC01EA5938
S11321A0F44CC781D0858681813059F549015A01A3
S11321B08B010E943B032B013C01C12CD12C7601E5
S11321C01AC08C8185FF0AC0F801EC0DFD1D8081C9
S11321D08A832FEFC21AD20AE20AF20A0E943B0350
S11321E0DC01CB0184199509A609B709843F914004
S11321F0A105B10548F4C814D904EA04FB0408F3A2
S113220003C0C12CD12C7601C701B601DF91CF9157
S11322101F910F91FF90EF90DF90CF90BF90AF9000
S11322209F908F907F906F905F904F900895CF9381
S1132230DF931F92CDB7DEB71982282F30E087E5F0
S1132240829FF001839FF00D1124EA59F44C86819A
S1132250813089F447E5429FC001439F900D1124CA
S113226021E030E040E050E0BE016F5F7F4F8155D8
S1132270944C0E94D90389810F90DF91CF910895E6
S1132280CF93DF93CDB7DEB7C058D109CDBFDEBF42
S11322909E0128573F4FCA57DF4F48815981C6587E
S11322A0D04060E870E0CE0101960E94C1169C0106
S11322B0990F440B550BBE016F5F7F4FCB57DF4F18
S11322C08881C558D0400E94BA10C058DF4FCDBF96
S11322D0DEBFDF91CF91089578941F920F920FB6CD
S11322E00F9211242F933F934F935F936F937F9398
S11322F08F939F93AF93BF93EF93FF9360910008E5
S113230080E00E942010FF91EF91BF91AF919F91C7
S11323108F917F916F915F914F913F912F910F908A
S11323200FBE0F901F9018950E9425030E94190B51
S11323300E94EA0E0E94F20E0E9448100E943A0F78
S11323400E948E0B81E008950E9494110E94D20293
S11323500E94E10280E090E008955058BB27AA272C
S11323600E94C5110C940F130E94011338F00E94AF
S1132370081320F039F49F3F19F426F40C94FE124C
S11323800EF4E095E7FB0C94F812E92F0E94201359
S113239058F3BA17620773078407950720F079F496
S11323A0A6F50C9442130EF4E0950B2EBA2FA02D33
S11323B00B01B90190010C01CA01A0011124FF27EE
S11323C0591B99F0593F50F4503E68F11A16F040E9
S11323D0A22F232F342F4427585FF3CF46953795E8
S11323E02795A795F0405395C9F77EF41F16BA0BAD
S11323F0620B730B840BBAF09150A1F0FF0FBB1F5B
S1132400661F771F881FC2F70EC0BA0F621F731FA3
S1132410841F48F4879577956795B795F7959E3F00
S113242008F0B0CF9395880F08F09927EE0F979591
S1132430879508950E942E120C940F130E9408137E
S113244058F00E94011340F029F45F3F29F00C94E6
S1132450F81251110C9443130C94FE120E94201391
S113246068F39923B1F3552391F3951B550BBB27BF
S1132470AA2762177307840738F09F5F5F4F220F04
S1132480331F441FAA1FA9F335D00E2E3AF0E0E8FB
S113249032D091505040E695001CCAF72BD0FE2F45
S11324A029D0660F771F881FBB1F261737074807D9
S11324B0AB07B0E809F0BB0B802DBF01FF27935891
S11324C05F4F3AF09E3F510578F00C94F8120C944B
S11324D043135F3FE4F3983ED4F38695779567956D
S11324E0B795F7959F5FC9F7880F911D96958795C6
S11324F097F90895E1E0660F771F881FBB1F6217E5
S113250073078407BA0720F0621B730B840BBA0BA2
S1132510EE1F88F7E09508950E94281388F09F57CE
S113252098F0B92F9927B751B0F0E1F0660F771FF3
S1132530881F991F1AF0BA95C9F714C0B13091F0E9
S11325400E944213B1E008950C944213672F782F30
S11325508827B85F39F0B93FCCF3869577956795AE
S1132560B395D9F73EF490958095709561957F4F1A
S11325708F4F9F4F0895E89409C097FB3EF49095C0
S11325808095709561957F4F8F4F9F4F9923A9F048
S1132590F92F96E9BB279395F695879577956795D7
S11325A0B795F111F8CFFAF4BB0F11F460FF1BC01B
S11325B06F5F7F4F8F4F9F4F16C0882311F096E9AE
S11325C011C0772321F09EE8872F762F05C066235C
S11325D071F096E8862F70E060E02AF09A95660F15
S11325E0771F881FDAF7880F9695879597F90895CE
S11325F097F99F6780E870E060E008959FEF80ECB2
S1132600089500240A941616170618060906089554
S113261000240A9412161306140605060895092EBA
S11326200394000C11F4882352F0BB0F40F4BF2B29
S113263011F460FF04C06F5F7F4F8F4F9F4F089569
S113264057FD9058440F551F59F05F3F71F047955F
S1132650880F97FB991F61F09F3F79F08795089544
S1132660121613061406551FF2CF4695F1DF08C063
S1132670161617061806991FF1CF86957105610580
S113268008940895E894BB2766277727CB0197F928
S113269008950E945C130C940F130E94011338F0E8
S11326A00E94081320F0952311F00C94F8120C9456
S11326B0FE1211240C9443130E94201370F3959F6F
S11326C0C1F3950F50E0551F629FF001729FBB2725
S11326D0F00DB11D639FAA27F00DB11DAA1F649FC1
S11326E06627B00DA11D661F829F2227B00DA11D74
S11326F0621F739FB00DA11D621F839FA00D611DFA
S1132700221F749F3327A00D611D231F849F600D1A
S1132710211D822F762F6A2F11249F5750409AF043
S1132720F1F088234AF0EE0FFF1FBB1F661F771FCF
S1132730881F91505040A9F79E3F510580F00C949A
S1132740F8120C9443135F3FE4F3983ED4F3869558
S113275077956795B795F795E7959F5FC1F7FE2B3A
S1132760880F911D9695879597F9089597FB072EE5
S113277016F4009407D077FD09D00E94EC1307FCEF
S113278005D03EF4909581959F4F0895709561957D
S11327907F4F0895A1E21A2EAA1BBB1BFD010DC099
S11327A0AA1FBB1FEE1FFF1FA217B307E407F507FD
S11327B020F0A21BB30BE40BF50B661F771F881FD9
S11327C0991F1A9469F760957095809590959B016F
S11327D0AC01BD01CF010895AA1BBB1B51E107C089
S11327E0AA1FBB1FA617B70710F0A61BB70B881F9D
S11327F0991F5A95A9F780959095BC01CD0108952C
S1132800A0E0B0E0E6E0F4E10C94F719EC016B0110
S11328106115710519F0FB01808391837E01FFEF3F
S1132820EF1AFF0A0881802F90E00E946116892B1D
S113283011F0E701F3CF0D3239F47E0182E0E80EA6
S1132840F11C098111E008C00B3229F47E0192E0E9
S1132850E90EF11C098110E0E701219743E050E003
S113286060E870E0CE010E946A16892BC1F42396B9
S113287045E050E06BE770E0CE010E946A16892BB8
S113288009F42596C114D10419F0F601C083D1834B
S11328901111F6C060E070E080E89FE7FAC043E001
S11328A050E068E770E0CE010E946A16892B59F463
S11328B0C114D10409F4E9C0F2E0EF0EF11CF601F1
S11328C0E082F182E2C020E030E0A901C0E0D0E083
S11328D0F70180EDA82EA00E89E08A1530F1912F22
S11328E09260B92E812F887012FF04C0811124C018
S11328F0219622C081112197A5E0B0E00E94E6193B
S1132900DC01CB01880F991FAA1FBB1F9C01AD01DD
S11329102A0D311D411D511D283989E93807480701
S113292089E1580748F0166006C09EEFA9120AC054
S113293013FD40C01860B12E8FEFE81AF80A008129
S11329401B2DC6CF802F8F7D8534A1F580818D32DC
S113295011F4106106C08B3221F0319661E070E011
S113296004C08181329662E070E080538A3018F0AE
S1132970E61BF70B1FC060E070E060389CE079074D
S11329805CF4DB01AA0FBB1FAA0FBB1F6A0F7B1FDE
S1132990660F771F680F711D3196DF0111978C91B7
S11329A080538A3050F314FF03C071956195710907
S11329B0C60FD71F11FF08C0C114D10429F0CF01DD
S11329C00197F60180839183CA01B9010E94BB1269
S11329D0212F2370233019F04B015C0106C04B01F9
S11329E05C01B7FAB094B7F8B09420E030E0A901E4
S11329F0C501B4010E941917882309F43EC0D7FF0A
S1132A0006C0D195C195D10907E910E002C00FEACB
S1132A1010E06801F8E1CF1AD10890E2E92EF12C18
S1132A20CE15DF0574F0F801259135914591549147
S1132A30C501B4010E9449134B015C01CE19DF09A1
S1132A40EFCF04501109F594E7940C151D0541F7D7
S1132A508A2D880F8B2D881F8F3F49F020E030E0AE
S1132A60A901C501B4010E941917811106C082E2AF
S1132A7090E08093BD3B9093BE3BC501B40109C077
S1132A8060E070E080E89FEF04C060E070E080ECFC
S1132A909FE7CDB7DEB7ECE00C94101AA0E0B0E0ED
S1132AA0E4E5F5E10C94F2195C016B017A0161151E
S1132AB0710519F0FB0180839183E114F10429F07D
S1132AC0C7010297839708F0C9C0E5012196F50173
S1132AD01081812F90E00E946116892B11F05E0114
S1132AE0F4CF1D3229F42196F501118101E007C0CC
S1132AF01B3221F4E5012296F501118100E0E11475
S1132B00F104B1F0F0E1EF16F10429F4B0C010E3E0
S1132B10E114F10401F12AE0E216F104B1F180E1DB
S1132B20E816F10471F0E8E0EE16F104F1F413C0D4
S1132B30103341F588818F7D883549F719812296B4
S1132B400260F0E1EF2EF12C88248A94982CA82CB2
S1132B50AFE0BA2E20C078E0E72EF12C88248A94C6
S1132B60982CA82CEFE1BE2E16C06FEF7FEFCB019F
S1132B7097010F2C000C440B550B0E94CA134901FA
S1132B805A0109C08AE0E82EF12C69E9862E982CB6
S1132B90A82C69E1B62E40E060E070E0CB0127018B
S1132BA00F2C000C66087708FE0150ED352E310E0F
S1132BB029E0231570F42FEB210F2A3118F439EC96
S1132BC0332E06C02FE9210F2A3130F529EA322E9F
S1132BD0310E232D30E02E153F05F4F44F3FC9F09C
S1132BE086169706A806B90688F0A30192010E94EA
S1132BF0D619232D30E040E050E0620F731F841F8C
S1132C00951F621773078407950710F44FEF01C0EF
S1132C1041E021961081C8CFC114D10451F044235E
S1132C2011F0219703C001FF04C02297F601C0836D
S1132C30D18300FF07C090958095709561957F4F73
S1132C408F4F9F4F4F3F79F482E290E08093BD3BDA
S1132C509093BE3B3FEF2FEF9FEF0DC040E030E07D
S1132C6020E090E008C0462F372F282F04C01033EF
S1132C7009F067CF5FCF642F732F822FCDB7DEB7F4
S1132C80E1E10C940B1AFC0188279927E89421911F
S1132C902032E9F3293010F02E30C8F32B3241F002
S1132CA02D3239F4689404C00E94B916820F911D24
S1132CB0219120532A30C0F31EF4909581959F4FA3
S1132CC0089591110C942319803219F0895085507C
S1132CD0C8F70895FB01DC014150504088F08D9104
S1132CE081341CF08B350CF4805E659161341CF0EA
S1132CF06B350CF4605E861B611171F3990B0895BA
S1132D00881BFCCFFB01DC018D910190801901101F
S1132D10D9F3990B0895FB01DC0101900D92002079
S1132D20E1F70895FA01A191B081009719F4109781
S1132D30E1F0CD01DC01CD010D90002011F4C001C2
S1132D4013C0FB012191222319F02015D9F7F3CFE9
S1132D50FB012191201519F41E92119606C022231D
S1132D60C1F70D900020A1F7D001FA01A193B0831F
S1132D7008957AE0979F902D879F802D910D1124BF
S1132D800895AEE0B0E0E7ECF6E10C94FF198C0195
S1132D90FA0186E08C8309831A8377FF02C060E01E
S1132DA070E8CB0101978D839E83A901BF01CE01F9
S1132DB001960E9442174D815E8157FD0AC02F8102
S1132DC03885421753070CF49A01F801E20FF31FF8
S1132DD010822E96E4E00C94181AAEE0B0E0E3EF13
S1132DE0F6E10C94FF198C01FA018EE08C830983BF
S1132DF01A8377FF02C060E070E8CB0101978D83EE
S1132E009E83A901BF01CE0101960E9442174D8104
S1132E105E8157FD0AC02F813885421753070CF491
S1132E209A01F801E20FF31F10822E96E4E00C944D
S1132E30181A0E941E1708F481E00895990F0008DB
S1132E40550FAA0BE0E8FEEF16161706E807F90778
S1132E50C0F012161306E407F50798F0621B730B13
S1132E60840B950B39F40A2661F0232B242B252B94
S1132E7021F408950A2609F4A140A6958FEF811D37
S1132E80811D0895ABE0B0E0E8E4F7E10C94F1199A
S1132E906C017B018A01FC0116821782838181FF08
S1132EA0CCC1CE0101963C01F6019381F70193FD5B
S1132EB0859193FF81917F01882309F4BAC18532FA
S1132EC039F493FD859193FF81917F01853229F433
S1132ED0B60190E00E943C19E7CF912C212C312CB3
S1132EE0FFE1F315D8F08B3279F038F4803279F0C1
S1132EF08332A1F4232D20611DC08D3261F0803313
S1132F0069F4232D216016C0832D8260382EE32DB1
S1132F10E4603E2E2AC0F32DF8601DC037FC2DC09E
S1132F2020ED280F2A3040F08E32B9F436FC81C1EE
S1132F30232D2064322E19C036FE06C08AE0989EE6
S1132F40200D1124922E11C0EAE02E9E200D112492
S1132F50222EF32DF0623F2E08C08C3621F4832DEF
S1132F608068382E02C0883641F4F70193FD8591BC
S1132F7093FF81917F018111B3CF982F9F7D955449
S1132F80933028F40C5F1F4F9FE399830DC0833661
S1132F9031F0833771F0833509F059C021C0F8014D
S1132FA0808189830E5F1F4F88248394912C530161
S1132FB013C02801F2E04F0E511CF801A080B1802B
S1132FC036FE03C0692D70E002C06FEF7FEFC501CC
S1132FD00E9431194C018201F32DFF773F2E16C058
S1132FE0280122E0420E511CF801A080B18036FE77
S1132FF003C0692D70E002C06FEF7FEFC5010E942E
S113300026194C01F32DF0683F2E820133FC1BC0BE
S1133010822D90E088169906B0F4B60180E290E023
S11330200E943C192A94F4CFF50137FC859137FEB0
S113303081915F01B60190E00E943C1921102A940D
S113304021E0821A91088114910471F7E8C0843652
S113305011F0893641F5F80137FE07C060817181AE
S1133060828193810C5F1F4F08C060817181072E9C
S1133070000C880B990B0E5F1F4FF32DFF763F2E2C
S113308097FF09C090958095709561957F4F8F4FFC
S11330909F4FF0683F2E2AE030E0A3010E94781988
S11330A0882E861845C0853731F4232D2F7EB22E05
S11330B02AE030E025C0932D997FB92E8F36C1F0D8
S11330C018F4883579F0B5C0803719F0883721F0C5
S11330D0B0C0E92FE061BE2EB4FE0DC0FB2DF4603C
S11330E0BF2E09C034FE0AC0292F2660B22E06C0A6
S11330F028E030E005C020E130E002C020E132E009
S1133100F801B7FE07C060817181828193810C5FF1
S11331101F4F06C06081718180E090E00E5F1F4FF9
S1133120A3010E947819882E8618FB2DFF773F2E65
S113313036FE0DC0232D2E7FA22E891458F434FEA2
S11331400BC032FC09C0832D8E7EA82E05C0B82C7E
S1133150A32C03C0B82C01C0B92CA4FE0FC0FE01DF
S1133160E80DF11D8081803321F49A2D997EA92EDA
S113317009C0A2FE06C0B394B39404C08A2D867815
S113318009F0B394A3FC11C0A0FE06C0B21488F4E5
S1133190280C922C9B180EC0B21460F4B60180E285
S11331A090E00E943C19B394F7CFB21418F42B1892
S11331B002C0982C212CA4FE10C0B60180E390E03C
S11331C00E943C19A2FE17C0A1FC03C088E790E04E
S11331D002C088E590E0B6010CC08A2D867859F0CB
S11331E0A1FE02C08BE201C080E2A7FC8DE2B60121
S11331F090E00E943C19891438F4B60180E390E011
S11332000E943C199A94F7CF8A94F301E80DF11DBA
S11332108081B60190E00E943C198110F5CF2220F4
S113322009F442CEB60180E290E00E943C192A944F
S1133230F6CFF6018681978102C08FEF9FEF2B9620
S1133240E2E10C940A1A992788270895FC01059055
S1133250615070400110D8F7809590958E0F9F1F94
S11332600895FC016150704001900110D8F78095D9
S113327090958E0F9F1F08950F931F93CF93DF9305
S1133280FB01238121FD03C08FEF9FEF2CC022FFA0
S113329016C046815781248135814217530744F46F
S11332A0A081B1819D012F5F3F4F208331838C9397
S11332B0268137812F5F3F4F2683378314C08B01CC
S11332C0EC01FB010084F185E02D0995892BE1F6E1
S11332D0D80116968D919C911797019616968D9309
S11332E09C931797CE01DF91CF911F910F91089571
S11332F0FA01AA27283051F1203181F1E8946F9323
S11333006E7F6E5F7F4F8F4F9F4FAF4FB1E03ED0C8
S1133310B4E03CD0670F781F891F9A1FA11D680F66
S1133320791F8A1F911DA11D6A0F711D811D911D99
S1133330A11D20D009F468943F912AE0269F11240E
S11333403019305D3193DEF6CF010895462F477072
S1133350405D4193B3E00FD0C9F7F6CF462F4F70CD
S1133360405D4A3318F0495D31FD4052419302D02B
S1133370A9F7EACFB4E0A6959795879577956795D1
S1133380BA95C9F700976105710508959B01AC01D1
S11333900A2E06945795479537952795BA95C9F7F8
S11333A0620F731F841F951FA01D0895DB018F9367
S11333B09F930E94E619BF91AF91A29F800D911D2A
S11333C0A39F900DB29F900D112408950E94221A7C
S11333D0A59F900DB49F900DA49F800D911D112465
S11333E008952F923F924F925F926F927F928F92A5
S11333F09F92AF92BF92CF92DF92EF92FF920F9380
S11334001F93CF93DF93CDB7DEB7CA1BDB0BCDBFC2
S1133410DEBF09942A88398848885F846E847D8455
S11334208C849B84AA84B984C884DF80EE80FD8068
S11334300C811B81AA81B981CE0FD11DCDBFDEBF06
S1133440ED010895A29FB001B39FC001A39F700D29
S1133450811D1124911DB29F700D811D1124911D98
S10934600895F894FFCF6B
S11334661B5B256444001B5B25645000200C0A0D7D
S1133476090B001B5B256443000A202020006865B5
S11334866C70006D64006D64700069326300736370
S1133496616E0049324320434825642041646472C6
S11334A620307825303258203A204F4B0A00667572
S11334B6736500696E666F00726573657400626F8A
S10634C66F74001C
S9030000FC
