S00B00004C45442E7372656344
S11300000C943C000C944E000C944E000C944E0046
S11300100C944E000C944E000C944E000C944E0024
S11300200C944E000C944E000C944E000C944E0014
S11300300C944E000C946D000C944E000C944E00E5
S11300400C944E000C944E000C944E000C944E00F4
S11300500C944E000C944E000C944E000C944E00E4
S11300600C944E000C944E000C944E000C944E00D4
S11300700C944E000C944E0011241FBECFEFCDBF44
S1130080DFE3DEBF28E3A0E0B8E301C01D92A430A3
S1130090B207E1F70E94BB000C94C4000C9400006A
S11300A081E08093410408950E94AC006B017C01BF
S11300B00E94AC00DC01CB018C199D09AE09BF097B
S11300C084369105A105B10598F30E94AC006B013B
S11300D07C0181E080934704EBCF78941F920F92C8
S11300E00FB60F9211248F939F93AF93BF93809178
S11300F0003890910138A0910238B09103380196EC
S1130100A11DB11D8093003890930138A09302384B
S1130110B093033881E08093860ABF91AF919F9199
S11301208F910F900FBE0F901F90189588ED84BF8C
S1130130E0E6F0E0108284BF1182E0E8FAE0108289
S1130140118281E085838FE19EE484879587808195
S113015081608083789408952FB7F8946091003873
S11301607091013880910238909103382FBF08951F
S11301700E94960008950E94B8000E9450000E94B8
S10F0180540080E090E00895F894FFCF54
S9030000FC
